{
  "_format": "hh-sol-artifact-1",
  "contractName": "AgentCouncilDAO",
  "sourceName": "contracts/AgentCouncilDAO.sol",
  "abi": [
    {
      "inputs": [
        {
          "internalType": "address[]",
          "name": "_agents",
          "type": "address[]"
        }
      ],
      "stateMutability": "nonpayable",
      "type": "constructor"
    },
    {
      "anonymous": false,
      "inputs": [
        {
          "indexed": false,
          "internalType": "string",
          "name": "id",
          "type": "string"
        },
        {
          "indexed": false,
          "internalType": "string",
          "name": "status",
          "type": "string"
        }
      ],
      "name": "ProposalStatusChanged",
      "type": "event"
    },
    {
      "anonymous": false,
      "inputs": [
        {
          "indexed": false,
          "internalType": "string",
          "name": "id",
          "type": "string"
        },
        {
          "indexed": false,
          "internalType": "string",
          "name": "title",
          "type": "string"
        },
        {
          "indexed": false,
          "internalType": "uint256",
          "name": "budget",
          "type": "uint256"
        }
      ],
      "name": "ProposalSubmitted",
      "type": "event"
    },
    {
      "anonymous": false,
      "inputs": [
        {
          "indexed": false,
          "internalType": "string",
          "name": "id",
          "type": "string"
        },
        {
          "indexed": false,
          "internalType": "address",
          "name": "agent",
          "type": "address"
        },
        {
          "indexed": false,
          "internalType": "string",
          "name": "vote",
          "type": "string"
        }
      ],
      "name": "VoteCast",
      "type": "event"
    },
    {
      "inputs": [
        {
          "internalType": "uint256",
          "name": "",
          "type": "uint256"
        }
      ],
      "name": "agents",
      "outputs": [
        {
          "internalType": "address",
          "name": "",
          "type": "address"
        }
      ],
      "stateMutability": "view",
      "type": "function"
    },
    {
      "inputs": [
        {
          "internalType": "string",
          "name": "_id",
          "type": "string"
        }
      ],
      "name": "getProposal",
      "outputs": [
        {
          "internalType": "string",
          "name": "id",
          "type": "string"
        },
        {
          "internalType": "string",
          "name": "title",
          "type": "string"
        },
        {
          "internalType": "string",
          "name": "description",
          "type": "string"
        },
        {
          "internalType": "uint256",
          "name": "budget",
          "type": "uint256"
        },
        {
          "internalType": "uint256",
          "name": "duration",
          "type": "uint256"
        },
        {
          "internalType": "string",
          "name": "status",
          "type": "string"
        },
        {
          "internalType": "uint256",
          "name": "yesVotes",
          "type": "uint256"
        },
        {
          "internalType": "uint256",
          "name": "noVotes",
          "type": "uint256"
        }
      ],
      "stateMutability": "view",
      "type": "function"
    },
    {
      "inputs": [],
      "name": "owner",
      "outputs": [
        {
          "internalType": "address",
          "name": "",
          "type": "address"
        }
      ],
      "stateMutability": "view",
      "type": "function"
    },
    {
      "inputs": [
        {
          "internalType": "string",
          "name": "",
          "type": "string"
        }
      ],
      "name": "proposals",
      "outputs": [
        {
          "internalType": "string",
          "name": "id",
          "type": "string"
        },
        {
          "internalType": "string",
          "name": "title",
          "type": "string"
        },
        {
          "internalType": "string",
          "name": "description",
          "type": "string"
        },
        {
          "internalType": "uint256",
          "name": "budget",
          "type": "uint256"
        },
        {
          "internalType": "uint256",
          "name": "duration",
          "type": "uint256"
        },
        {
          "internalType": "string",
          "name": "status",
          "type": "string"
        },
        {
          "internalType": "uint256",
          "name": "yesVotes",
          "type": "uint256"
        },
        {
          "internalType": "uint256",
          "name": "noVotes",
          "type": "uint256"
        }
      ],
      "stateMutability": "view",
      "type": "function"
    },
    {
      "inputs": [
        {
          "internalType": "string",
          "name": "_id",
          "type": "string"
        },
        {
          "internalType": "string",
          "name": "_vote",
          "type": "string"
        }
      ],
      "name": "recordVote",
      "outputs": [],
      "stateMutability": "nonpayable",
      "type": "function"
    },
    {
      "inputs": [
        {
          "internalType": "string",
          "name": "_id",
          "type": "string"
        },
        {
          "internalType": "string",
          "name": "_title",
          "type": "string"
        },
        {
          "internalType": "string",
          "name": "_description",
          "type": "string"
        },
        {
          "internalType": "uint256",
          "name": "_budget",
          "type": "uint256"
        },
        {
          "internalType": "uint256",
          "name": "_duration",
          "type": "uint256"
        }
      ],
      "name": "submitProposal",
      "outputs": [],
      "stateMutability": "nonpayable",
      "type": "function"
    },
    {
      "inputs": [
        {
          "internalType": "address[]",
          "name": "_newAgents",
          "type": "address[]"
        }
      ],
      "name": "updateAgents",
      "outputs": [],
      "stateMutability": "nonpayable",
      "type": "function"
    }
  ],
  "bytecode": "0x60806040523480156200001157600080fd5b506040516200229238038062002292833981810160405281019062000037919062000334565b33600260006101000a81548173ffffffffffffffffffffffffffffffffffffffff021916908373ffffffffffffffffffffffffffffffffffffffff16021790555080600190805190602001906200009092919062000098565b505062000385565b82805482825590600052602060002090810192821562000114579160200282015b82811115620001135782518260006101000a81548173ffffffffffffffffffffffffffffffffffffffff021916908373ffffffffffffffffffffffffffffffffffffffff16021790555091602001919060010190620000b9565b5b50905062000123919062000127565b5090565b5b808211156200014257600081600090555060010162000128565b5090565b6000604051905090565b600080fd5b600080fd5b600080fd5b6000601f19601f8301169050919050565b7f4e487b7100000000000000000000000000000000000000000000000000000000600052604160045260246000fd5b620001aa826200015f565b810181811067ffffffffffffffff82111715620001cc57620001cb62000170565b5b80604052505050565b6000620001e162000146565b9050620001ef82826200019f565b919050565b600067ffffffffffffffff82111562000212576200021162000170565b5b602082029050602081019050919050565b600080fd5b600073ffffffffffffffffffffffffffffffffffffffff82169050919050565b6000620002558262000228565b9050919050565b620002678162000248565b81146200027357600080fd5b50565b60008151905062000287816200025c565b92915050565b6000620002a46200029e84620001f4565b620001d5565b90508083825260208201905060208402830185811115620002ca57620002c962000223565b5b835b81811015620002f75780620002e2888262000276565b845260208401935050602081019050620002cc565b5050509392505050565b600082601f8301126200031957620003186200015a565b5b81516200032b8482602086016200028d565b91505092915050565b6000602082840312156200034d576200034c62000150565b5b600082015167ffffffffffffffff8111156200036e576200036d62000155565b5b6200037c8482850162000301565b91505092915050565b611efd80620003956000396000f3fe608060405234801561001057600080fd5b506004361061007d5760003560e01c80638da5cb5b1161005b5780638da5cb5b14610105578063bcb0fc3014610123578063d89391a11461013f578063ffa0d2a41461015b5761007d565b806325d3a09d14610082578063513856c8146100b9578063873a6669146100e9575b600080fd5b61009c6004803603810190610097919061119e565b610192565b6040516100b098979695949392919061127f565b60405180910390f35b6100d360048036038101906100ce9190611345565b610430565b6040516100e091906113b3565b60405180910390f35b61010360048036038101906100fe91906113ce565b61046f565b005b61010d610a2b565b60405161011a91906113b3565b60405180910390f35b61013d60048036038101906101389190611446565b610a51565b005b61015960048036038101906101549190611609565b610bc7565b005b6101756004803603810190610170919061119e565b610c71565b60405161018998979695949392919061127f565b60405180910390f35b606080606060008060606000806000808a6040516101b0919061168e565b908152602001604051809103902090508060000181600101826002018360030154846004015485600501866006015487600701548780546101f0906116d4565b80601f016020809104026020016040519081016040528092919081815260200182805461021c906116d4565b80156102695780601f1061023e57610100808354040283529160200191610269565b820191906000526020600020905b81548152906001019060200180831161024c57829003601f168201915b5050505050975086805461027c906116d4565b80601f01602080910402602001604051908101604052809291908181526020018280546102a8906116d4565b80156102f55780601f106102ca576101008083540402835291602001916102f5565b820191906000526020600020905b8154815290600101906020018083116102d857829003601f168201915b50505050509650858054610308906116d4565b80601f0160208091040260200160405190810160405280929190818152602001828054610334906116d4565b80156103815780601f1061035657610100808354040283529160200191610381565b820191906000526020600020905b81548152906001019060200180831161036457829003601f168201915b50505050509550828054610394906116d4565b80601f01602080910402602001604051908101604052809291908181526020018280546103c0906116d4565b801561040d5780601f106103e25761010080835404028352916020019161040d565b820191906000526020600020905b8154815290600101906020018083116103f057829003601f168201915b505050505092509850985098509850985098509850985050919395975091939597565b6001818154811061044057600080fd5b906000526020600020016000915054906101000a900473ffffffffffffffffffffffffffffffffffffffff1681565b60008083604051610480919061168e565b9081526020016040518091039020600001805461049c906116d4565b9050036104de576040517f08c379a00000000000000000000000000000000000000000000000000000000081526004016104d590611751565b60405180910390fd5b6104e733610eef565b610526576040517f08c379a000000000000000000000000000000000000000000000000000000000815260040161051d906117bd565b60405180910390fd5b600082604051610536919061168e565b908152602001604051809103902060080160003373ffffffffffffffffffffffffffffffffffffffff1673ffffffffffffffffffffffffffffffffffffffff16815260200190815260200160002060009054906101000a900460ff16156105d2576040517f08c379a00000000000000000000000000000000000000000000000000000000081526004016105c990611829565b60405180910390fd5b60016000836040516105e4919061168e565b908152602001604051809103902060080160003373ffffffffffffffffffffffffffffffffffffffff1673ffffffffffffffffffffffffffffffffffffffff16815260200190815260200160002060006101000a81548160ff02191690831515021790555060405160200161065890611895565b604051602081830303815290604052805190602001208160405160200161067f919061168e565b60405160208183030381529060405280519060200120036106d85760016000836040516106ac919061168e565b908152602001604051809103902060060160008282546106cc91906118d9565b92505081905550610764565b6040516020016106e790611959565b604051602081830303815290604052805190602001208160405160200161070e919061168e565b604051602081830303815290604052805190602001200361076357600160008360405161073b919061168e565b9081526020016040518091039020600701600082825461075b91906118d9565b925050819055505b5b7ea57c72212c37dbaffdcb5de556c1fcb9cb77e578fbf2138f88d107e69969208233836040516107969392919061196e565b60405180910390a160036000836040516107b0919061168e565b90815260200160405180910390206006015410610867576040518060400160405280600881526020017f417070726f76656400000000000000000000000000000000000000000000000081525060008360405161080d919061168e565b9081526020016040518091039020600501908161082a9190611b5f565b507f09080bc04774dacc9ce2de4c566921528b924b722405bf4b8d2fde6136daca298260405161085a9190611c7d565b60405180910390a1610a27565b6003600083604051610879919061168e565b90815260200160405180910390206007015410610930576040518060400160405280600881526020017f52656a65637465640000000000000000000000000000000000000000000000008152506000836040516108d6919061168e565b908152602001604051809103902060050190816108f39190611b5f565b507f09080bc04774dacc9ce2de4c566921528b924b722405bf4b8d2fde6136daca29826040516109239190611cfe565b60405180910390a1610a26565b600180549050600083604051610946919061168e565b908152602001604051809103902060070154600084604051610968919061168e565b90815260200160405180910390206006015461098491906118d9565b10610a25576040518060400160405280600881526020017f52656a65637465640000000000000000000000000000000000000000000000008152506000836040516109cf919061168e565b908152602001604051809103902060050190816109ec9190611b5f565b507f09080bc04774dacc9ce2de4c566921528b924b722405bf4b8d2fde6136daca2982604051610a1c9190611cfe565b60405180910390a15b5b5b5050565b600260009054906101000a900473ffffffffffffffffffffffffffffffffffffffff1681565b60008086604051610a62919061168e565b90815260200160405180910390206000018054610a7e906116d4565b905014610ac0576040517f08c379a0000000000000000000000000000000000000000000000000000000008152600401610ab790611d7f565b60405180910390fd5b60008086604051610ad1919061168e565b9081526020016040518091039020905085816000019081610af29190611b5f565b5084816001019081610b049190611b5f565b5083816002019081610b169190611b5f565b508281600301819055508181600401819055506040518060400160405280600781526020017f50656e64696e6700000000000000000000000000000000000000000000000000815250816005019081610b6f9190611b5f565b5060008160060181905550600081600701819055507fca59b1cf46c3c45933d0e0210aa8200cbd9defdd767683010a009bd167fb4ae8868685604051610bb793929190611d9f565b60405180910390a1505050505050565b600260009054906101000a900473ffffffffffffffffffffffffffffffffffffffff1673ffffffffffffffffffffffffffffffffffffffff163373ffffffffffffffffffffffffffffffffffffffff1614610c57576040517f08c379a0000000000000000000000000000000000000000000000000000000008152600401610c4e90611e30565b60405180910390fd5b8060019080519060200190610c6d929190610f9d565b5050565b600081805160208101820180518482526020830160208501208183528095505050505050600091509050806000018054610caa906116d4565b80601f0160208091040260200160405190810160405280929190818152602001828054610cd6906116d4565b8015610d235780601f10610cf857610100808354040283529160200191610d23565b820191906000526020600020905b815481529060010190602001808311610d0657829003601f168201915b505050505090806001018054610d38906116d4565b80601f0160208091040260200160405190810160405280929190818152602001828054610d64906116d4565b8015610db15780601f10610d8657610100808354040283529160200191610db1565b820191906000526020600020905b815481529060010190602001808311610d9457829003601f168201915b505050505090806002018054610dc6906116d4565b80601f0160208091040260200160405190810160405280929190818152602001828054610df2906116d4565b8015610e3f5780601f10610e1457610100808354040283529160200191610e3f565b820191906000526020600020905b815481529060010190602001808311610e2257829003601f168201915b505050505090806003015490806004015490806005018054610e60906116d4565b80601f0160208091040260200160405190810160405280929190818152602001828054610e8c906116d4565b8015610ed95780601f10610eae57610100808354040283529160200191610ed9565b820191906000526020600020905b815481529060010190602001808311610ebc57829003601f168201915b5050505050908060060154908060070154905088565b600080600090505b600180549050811015610f92578273ffffffffffffffffffffffffffffffffffffffff1660018281548110610f2f57610f2e611e50565b5b9060005260206000200160009054906101000a900473ffffffffffffffffffffffffffffffffffffffff1673ffffffffffffffffffffffffffffffffffffffff1603610f7f576001915050610f98565b8080610f8a90611e7f565b915050610ef7565b50600090505b919050565b828054828255906000526020600020908101928215611016579160200282015b828111156110155782518260006101000a81548173ffffffffffffffffffffffffffffffffffffffff021916908373ffffffffffffffffffffffffffffffffffffffff16021790555091602001919060010190610fbd565b5b5090506110239190611027565b5090565b5b80821115611040576000816000905550600101611028565b5090565b6000604051905090565b600080fd5b600080fd5b600080fd5b600080fd5b6000601f19601f8301169050919050565b7f4e487b7100000000000000000000000000000000000000000000000000000000600052604160045260246000fd5b6110ab82611062565b810181811067ffffffffffffffff821117156110ca576110c9611073565b5b80604052505050565b60006110dd611044565b90506110e982826110a2565b919050565b600067ffffffffffffffff82111561110957611108611073565b5b61111282611062565b9050602081019050919050565b82818337600083830152505050565b600061114161113c846110ee565b6110d3565b90508281526020810184848401111561115d5761115c61105d565b5b61116884828561111f565b509392505050565b600082601f83011261118557611184611058565b5b813561119584826020860161112e565b91505092915050565b6000602082840312156111b4576111b361104e565b5b600082013567ffffffffffffffff8111156111d2576111d1611053565b5b6111de84828501611170565b91505092915050565b600081519050919050565b600082825260208201905092915050565b60005b83811015611221578082015181840152602081019050611206565b60008484015250505050565b6000611238826111e7565b61124281856111f2565b9350611252818560208601611203565b61125b81611062565b840191505092915050565b6000819050919050565b61127981611266565b82525050565b600061010082019050818103600083015261129a818b61122d565b905081810360208301526112ae818a61122d565b905081810360408301526112c2818961122d565b90506112d16060830188611270565b6112de6080830187611270565b81810360a08301526112f0818661122d565b90506112ff60c0830185611270565b61130c60e0830184611270565b9998505050505050505050565b61132281611266565b811461132d57600080fd5b50565b60008135905061133f81611319565b92915050565b60006020828403121561135b5761135a61104e565b5b600061136984828501611330565b91505092915050565b600073ffffffffffffffffffffffffffffffffffffffff82169050919050565b600061139d82611372565b9050919050565b6113ad81611392565b82525050565b60006020820190506113c860008301846113a4565b92915050565b600080604083850312156113e5576113e461104e565b5b600083013567ffffffffffffffff81111561140357611402611053565b5b61140f85828601611170565b925050602083013567ffffffffffffffff8111156114305761142f611053565b5b61143c85828601611170565b9150509250929050565b600080600080600060a086880312156114625761146161104e565b5b600086013567ffffffffffffffff8111156114805761147f611053565b5b61148c88828901611170565b955050602086013567ffffffffffffffff8111156114ad576114ac611053565b5b6114b988828901611170565b945050604086013567ffffffffffffffff8111156114da576114d9611053565b5b6114e688828901611170565b93505060606114f788828901611330565b925050608061150888828901611330565b9150509295509295909350565b600067ffffffffffffffff8211156115305761152f611073565b5b602082029050602081019050919050565b600080fd5b61154f81611392565b811461155a57600080fd5b50565b60008135905061156c81611546565b92915050565b600061158561158084611515565b6110d3565b905080838252602082019050602084028301858111156115a8576115a7611541565b5b835b818110156115d157806115bd888261155d565b8452602084019350506020810190506115aa565b5050509392505050565b600082601f8301126115f0576115ef611058565b5b8135611600848260208601611572565b91505092915050565b60006020828403121561161f5761161e61104e565b5b600082013567ffffffffffffffff81111561163d5761163c611053565b5b611649848285016115db565b91505092915050565b600081905092915050565b6000611668826111e7565b6116728185611652565b9350611682818560208601611203565b80840191505092915050565b600061169a828461165d565b915081905092915050565b7f4e487b7100000000000000000000000000000000000000000000000000000000600052602260045260246000fd5b600060028204905060018216806116ec57607f821691505b6020821081036116ff576116fe6116a5565b5b50919050565b7f50726f706f73616c20646f6573206e6f74206578697374000000000000000000600082015250565b600061173b6017836111f2565b915061174682611705565b602082019050919050565b6000602082019050818103600083015261176a8161172e565b9050919050565b7f4e6f7420616e20617574686f72697a6564206167656e74000000000000000000600082015250565b60006117a76017836111f2565b91506117b282611771565b602082019050919050565b600060208201905081810360008301526117d68161179a565b9050919050565b7f4167656e7420616c726561647920766f74656400000000000000000000000000600082015250565b60006118136013836111f2565b915061181e826117dd565b602082019050919050565b6000602082019050818103600083015261184281611806565b9050919050565b7f7965730000000000000000000000000000000000000000000000000000000000600082015250565b600061187f600383611652565b915061188a82611849565b600382019050919050565b60006118a082611872565b9150819050919050565b7f4e487b7100000000000000000000000000000000000000000000000000000000600052601160045260246000fd5b60006118e482611266565b91506118ef83611266565b9250828201905080821115611907576119066118aa565b5b92915050565b7f6e6f000000000000000000000000000000000000000000000000000000000000600082015250565b6000611943600283611652565b915061194e8261190d565b600282019050919050565b600061196482611936565b9150819050919050565b60006060820190508181036000830152611988818661122d565b905061199760208301856113a4565b81810360408301526119a9818461122d565b9050949350505050565b60008190508160005260206000209050919050565b60006020601f8301049050919050565b600082821b905092915050565b600060088302611a157fffffffffffffffffffffffffffffffffffffffffffffffffffffffffffffffff826119d8565b611a1f86836119d8565b95508019841693508086168417925050509392505050565b6000819050919050565b6000611a5c611a57611a5284611266565b611a37565b611266565b9050919050565b6000819050919050565b611a7683611a41565b611a8a611a8282611a63565b8484546119e5565b825550505050565b600090565b611a9f611a92565b611aaa818484611a6d565b505050565b5b81811015611ace57611ac3600082611a97565b600181019050611ab0565b5050565b601f821115611b1357611ae4816119b3565b611aed846119c8565b81016020851015611afc578190505b611b10611b08856119c8565b830182611aaf565b50505b505050565b600082821c905092915050565b6000611b3660001984600802611b18565b1980831691505092915050565b6000611b4f8383611b25565b9150826002028217905092915050565b611b68826111e7565b67ffffffffffffffff811115611b8157611b80611073565b5b611b8b82546116d4565b611b96828285611ad2565b600060209050601f831160018114611bc95760008415611bb7578287015190505b611bc18582611b43565b865550611c29565b601f198416611bd7866119b3565b60005b82811015611bff57848901518255600182019150602085019450602081019050611bda565b86831015611c1c5784890151611c18601f891682611b25565b8355505b6001600288020188555050505b505050505050565b7f417070726f766564000000000000000000000000000000000000000000000000600082015250565b6000611c676008836111f2565b9150611c7282611c31565b602082019050919050565b60006040820190508181036000830152611c97818461122d565b90508181036020830152611caa81611c5a565b905092915050565b7f52656a6563746564000000000000000000000000000000000000000000000000600082015250565b6000611ce86008836111f2565b9150611cf382611cb2565b602082019050919050565b60006040820190508181036000830152611d18818461122d565b90508181036020830152611d2b81611cdb565b905092915050565b7f50726f706f73616c20494420616c726561647920657869737473000000000000600082015250565b6000611d69601a836111f2565b9150611d7482611d33565b602082019050919050565b60006020820190508181036000830152611d9881611d5c565b9050919050565b60006060820190508181036000830152611db9818661122d565b90508181036020830152611dcd818561122d565b9050611ddc6040830184611270565b949350505050565b7f4f6e6c79206f776e65722063616e20757064617465206167656e747300000000600082015250565b6000611e1a601c836111f2565b9150611e2582611de4565b602082019050919050565b60006020820190508181036000830152611e4981611e0d565b9050919050565b7f4e487b7100000000000000000000000000000000000000000000000000000000600052603260045260246000fd5b6000611e8a82611266565b91507fffffffffffffffffffffffffffffffffffffffffffffffffffffffffffffffff8203611ebc57611ebb6118aa565b5b60018201905091905056fea2646970667358221220bb936f6bff5383c0b6634c4ebda2d0e9f791f98f232d2d73d88587bb089c73eb64736f6c63430008140033",
  "linkReferences": {},
  "deployedLinkReferences": {}
}