{
  "_format": "hh-sol-artifact-1",
  "contractName": "UserOperation",
  "sourceName": "contracts/UserOperation.sol",
  "abi": [
    {
      "inputs": [],
      "stateMutability": "nonpayable",
      "type": "constructor"
    },
    {
      "anonymous": false,
      "inputs": [
        {
          "indexed": false,
          "internalType": "address",
          "name": "sender",
          "type": "address"
        },
        {
          "indexed": false,
          "internalType": "uint256",
          "name": "nonce",
          "type": "uint256"
        }
      ],
      "name": "UserOperationReceived",
      "type": "event"
    },
    {
      "inputs": [],
      "name": "entryPoint",
      "outputs": [
        {
          "internalType": "address",
          "name": "",
          "type": "address"
        }
      ],
      "stateMutability": "view",
      "type": "function"
    },
    {
      "inputs": [
        {
          "internalType": "address",
          "name": "sender",
          "type": "address"
        }
      ],
      "name": "getNonce",
      "outputs": [
        {
          "internalType": "uint256",
          "name": "",
          "type": "uint256"
        }
      ],
      "stateMutability": "pure",
      "type": "function"
    },
    {
      "inputs": [
        {
          "components": [
            {
              "internalType": "address",
              "name": "sender",
              "type": "address"
            },
            {
              "internalType": "uint256",
              "name": "nonce",
              "type": "uint256"
            },
            {
              "internalType": "bytes",
              "name": "initCode",
              "type": "bytes"
            },
            {
              "internalType": "bytes",
              "name": "callData",
              "type": "bytes"
            },
            {
              "internalType": "uint256",
              "name": "callGasLimit",
              "type": "uint256"
            },
            {
              "internalType": "uint256",
              "name": "verificationGasLimit",
              "type": "uint256"
            },
            {
              "internalType": "uint256",
              "name": "preVerificationGas",
              "type": "uint256"
            },
            {
              "internalType": "uint256",
              "name": "maxFeePerGas",
              "type": "uint256"
            },
            {
              "internalType": "uint256",
              "name": "maxPriorityFeePerGas",
              "type": "uint256"
            },
            {
              "internalType": "bytes",
              "name": "paymasterAndData",
              "type": "bytes"
            },
            {
              "internalType": "bytes",
              "name": "signature",
              "type": "bytes"
            }
          ],
          "internalType": "struct UserOperation.UserOp",
          "name": "op",
          "type": "tuple"
        }
      ],
      "name": "handleOp",
      "outputs": [],
      "stateMutability": "nonpayable",
      "type": "function"
    },
    {
      "inputs": [
        {
          "components": [
            {
              "internalType": "address",
              "name": "sender",
              "type": "address"
            },
            {
              "internalType": "uint256",
              "name": "nonce",
              "type": "uint256"
            },
            {
              "internalType": "bytes",
              "name": "initCode",
              "type": "bytes"
            },
            {
              "internalType": "bytes",
              "name": "callData",
              "type": "bytes"
            },
            {
              "internalType": "uint256",
              "name": "callGasLimit",
              "type": "uint256"
            },
            {
              "internalType": "uint256",
              "name": "verificationGasLimit",
              "type": "uint256"
            },
            {
              "internalType": "uint256",
              "name": "preVerificationGas",
              "type": "uint256"
            },
            {
              "internalType": "uint256",
              "name": "maxFeePerGas",
              "type": "uint256"
            },
            {
              "internalType": "uint256",
              "name": "maxPriorityFeePerGas",
              "type": "uint256"
            },
            {
              "internalType": "bytes",
              "name": "paymasterAndData",
              "type": "bytes"
            },
            {
              "internalType": "bytes",
              "name": "signature",
              "type": "bytes"
            }
          ],
          "internalType": "struct UserOperation.UserOp",
          "name": "op",
          "type": "tuple"
        }
      ],
      "name": "validateUserOp",
      "outputs": [
        {
          "internalType": "uint256",
          "name": "",
          "type": "uint256"
        }
      ],
      "stateMutability": "pure",
      "type": "function"
    }
  ],
  "bytecode": "0x608060405234801561001057600080fd5b50336000806101000a81548173ffffffffffffffffffffffffffffffffffffffff021916908373ffffffffffffffffffffffffffffffffffffffff16021790555061080f806100606000396000f3fe608060405234801561001057600080fd5b506004361061004c5760003560e01c8063099dd37f146100515780632d0335ab1461006d5780638393db0b1461009d578063b0d691fe146100cd575b600080fd5b61006b6004803603810190610066919061039c565b6100eb565b005b61008760048036038101906100829190610443565b6102fb565b6040516100949190610489565b60405180910390f35b6100b760048036038101906100b2919061039c565b61033b565b6040516100c49190610489565b60405180910390f35b6100d5610349565b6040516100e291906104b3565b60405180910390f35b60008054906101000a900473ffffffffffffffffffffffffffffffffffffffff1673ffffffffffffffffffffffffffffffffffffffff163373ffffffffffffffffffffffffffffffffffffffff1614610179576040517f08c379a00000000000000000000000000000000000000000000000000000000081526004016101709061052b565b60405180910390fd5b61019481600001602081019061018f9190610443565b6102fb565b8160200135146101d9576040517f08c379a00000000000000000000000000000000000000000000000000000000081526004016101d090610597565b60405180910390fd5b60008160000160208101906101ee9190610443565b73ffffffffffffffffffffffffffffffffffffffff1682806060019061021491906105c6565b604051610222929190610668565b6000604051808303816000865af19150503d806000811461025f576040519150601f19603f3d011682016040523d82523d6000602084013e610264565b606091505b50509050806102a8576040517f08c379a000000000000000000000000000000000000000000000000000000000815260040161029f906106cd565b60405180910390fd5b7f322aad1373977df18a162cad166e6fdd18096a60f64d073ce29040fa80ac0be88260000160208101906102dc9190610443565b83602001356040516102ef9291906106ed565b60405180910390a15050565b60006103e882604051602001610311919061075e565b6040516020818303038152906040528051906020012060001c61033491906107a8565b9050919050565b60008160a001359050919050565b60008054906101000a900473ffffffffffffffffffffffffffffffffffffffff1681565b600080fd5b600080fd5b600080fd5b6000610160828403121561039357610392610377565b5b81905092915050565b6000602082840312156103b2576103b161036d565b5b600082013567ffffffffffffffff8111156103d0576103cf610372565b5b6103dc8482850161037c565b91505092915050565b600073ffffffffffffffffffffffffffffffffffffffff82169050919050565b6000610410826103e5565b9050919050565b61042081610405565b811461042b57600080fd5b50565b60008135905061043d81610417565b92915050565b6000602082840312156104595761045861036d565b5b60006104678482850161042e565b91505092915050565b6000819050919050565b61048381610470565b82525050565b600060208201905061049e600083018461047a565b92915050565b6104ad81610405565b82525050565b60006020820190506104c860008301846104a4565b92915050565b600082825260208201905092915050565b7f4f6e6c7920456e747279506f696e742063616e2063616c6c0000000000000000600082015250565b60006105156018836104ce565b9150610520826104df565b602082019050919050565b6000602082019050818103600083015261054481610508565b9050919050565b7f496e76616c6964206e6f6e636500000000000000000000000000000000000000600082015250565b6000610581600d836104ce565b915061058c8261054b565b602082019050919050565b600060208201905081810360008301526105b081610574565b9050919050565b600080fd5b600080fd5b600080fd5b600080833560016020038436030381126105e3576105e26105b7565b5b80840192508235915067ffffffffffffffff821115610605576106046105bc565b5b602083019250600182023603831315610621576106206105c1565b5b509250929050565b600081905092915050565b82818337600083830152505050565b600061064f8385610629565b935061065c838584610634565b82840190509392505050565b6000610675828486610643565b91508190509392505050565b7f4f7065726174696f6e206661696c656400000000000000000000000000000000600082015250565b60006106b76010836104ce565b91506106c282610681565b602082019050919050565b600060208201905081810360008301526106e6816106aa565b9050919050565b600060408201905061070260008301856104a4565b61070f602083018461047a565b9392505050565b60008160601b9050919050565b600061072e82610716565b9050919050565b600061074082610723565b9050919050565b61075861075382610405565b610735565b82525050565b600061076a8284610747565b60148201915081905092915050565b7f4e487b7100000000000000000000000000000000000000000000000000000000600052601260045260246000fd5b60006107b382610470565b91506107be83610470565b9250826107ce576107cd610779565b5b82820690509291505056fea26469706673582212208ce48ca45f4adccf8d28122db7f8fb72b86796b39b02f4ed4099ce02706e8b9764736f6c63430008140033",
  "linkReferences": {},
  "deployedLinkReferences": {}
}